{
  "_format": "hh-sol-artifact-1",
  "contractName": "Create",
  "sourceName": "contracts/VotingContract.sol",
  "abi": [
    {
      "inputs": [],
      "stateMutability": "nonpayable",
      "type": "constructor"
    },
    {
      "anonymous": false,
      "inputs": [
        {
          "indexed": false,
          "internalType": "uint256",
          "name": "candidateId",
          "type": "uint256"
        },
        {
          "indexed": false,
          "internalType": "string",
          "name": "age",
          "type": "string"
        },
        {
          "indexed": false,
          "internalType": "string",
          "name": "name",
          "type": "string"
        },
        {
          "indexed": false,
          "internalType": "string",
          "name": "image",
          "type": "string"
        },
        {
          "indexed": false,
          "internalType": "uint256",
          "name": "voteCount",
          "type": "uint256"
        },
        {
          "indexed": false,
          "internalType": "address",
          "name": "_address",
          "type": "address"
        },
        {
          "indexed": false,
          "internalType": "string",
          "name": "ipfs",
          "type": "string"
        }
      ],
      "name": "CandidateCreate",
      "type": "event"
    },
    {
      "anonymous": false,
      "inputs": [
        {
          "indexed": true,
          "internalType": "uint256",
          "name": "voter_voterId",
          "type": "uint256"
        },
        {
          "indexed": false,
          "internalType": "string",
          "name": "voter_name",
          "type": "string"
        },
        {
          "indexed": false,
          "internalType": "string",
          "name": "voter_image",
          "type": "string"
        },
        {
          "indexed": false,
          "internalType": "address",
          "name": "voter_address",
          "type": "address"
        },
        {
          "indexed": false,
          "internalType": "uint256",
          "name": "voter_allowed",
          "type": "uint256"
        },
        {
          "indexed": false,
          "internalType": "bool",
          "name": "voter_voted",
          "type": "bool"
        },
        {
          "indexed": false,
          "internalType": "uint256",
          "name": "voter_vote",
          "type": "uint256"
        },
        {
          "indexed": false,
          "internalType": "string",
          "name": "voter_ipfs",
          "type": "string"
        }
      ],
      "name": "VoterCreated",
      "type": "event"
    },
    {
      "inputs": [
        {
          "internalType": "uint256",
          "name": "",
          "type": "uint256"
        }
      ],
      "name": "candidateAddress",
      "outputs": [
        {
          "internalType": "address",
          "name": "",
          "type": "address"
        }
      ],
      "stateMutability": "view",
      "type": "function"
    },
    {
      "inputs": [],
      "name": "candidateId",
      "outputs": [
        {
          "internalType": "uint256",
          "name": "_value",
          "type": "uint256"
        }
      ],
      "stateMutability": "view",
      "type": "function"
    },
    {
      "inputs": [
        {
          "internalType": "address",
          "name": "",
          "type": "address"
        }
      ],
      "name": "candidates",
      "outputs": [
        {
          "internalType": "uint256",
          "name": "candidateId",
          "type": "uint256"
        },
        {
          "internalType": "string",
          "name": "age",
          "type": "string"
        },
        {
          "internalType": "string",
          "name": "name",
          "type": "string"
        },
        {
          "internalType": "string",
          "name": "image",
          "type": "string"
        },
        {
          "internalType": "uint256",
          "name": "voteCount",
          "type": "uint256"
        },
        {
          "internalType": "address",
          "name": "_address",
          "type": "address"
        },
        {
          "internalType": "string",
          "name": "ipfs",
          "type": "string"
        }
      ],
      "stateMutability": "view",
      "type": "function"
    },
    {
      "inputs": [],
      "name": "getCandidate",
      "outputs": [
        {
          "internalType": "address[]",
          "name": "",
          "type": "address[]"
        }
      ],
      "stateMutability": "view",
      "type": "function"
    },
    {
      "inputs": [],
      "name": "getCandidateLength",
      "outputs": [
        {
          "internalType": "uint256",
          "name": "",
          "type": "uint256"
        }
      ],
      "stateMutability": "view",
      "type": "function"
    },
    {
      "inputs": [
        {
          "internalType": "address",
          "name": "_address",
          "type": "address"
        }
      ],
      "name": "getCandidatedata",
      "outputs": [
        {
          "internalType": "string",
          "name": "",
          "type": "string"
        },
        {
          "internalType": "string",
          "name": "",
          "type": "string"
        },
        {
          "internalType": "uint256",
          "name": "",
          "type": "uint256"
        },
        {
          "internalType": "string",
          "name": "",
          "type": "string"
        },
        {
          "internalType": "uint256",
          "name": "",
          "type": "uint256"
        },
        {
          "internalType": "string",
          "name": "",
          "type": "string"
        },
        {
          "internalType": "address",
          "name": "",
          "type": "address"
        }
      ],
      "stateMutability": "view",
      "type": "function"
    },
    {
      "inputs": [],
      "name": "getVotedVoterList",
      "outputs": [
        {
          "internalType": "address[]",
          "name": "",
          "type": "address[]"
        }
      ],
      "stateMutability": "view",
      "type": "function"
    },
    {
      "inputs": [
        {
          "internalType": "address",
          "name": "_address",
          "type": "address"
        }
      ],
      "name": "getVoterData",
      "outputs": [
        {
          "internalType": "uint256",
          "name": "",
          "type": "uint256"
        },
        {
          "internalType": "string",
          "name": "",
          "type": "string"
        },
        {
          "internalType": "string",
          "name": "",
          "type": "string"
        },
        {
          "internalType": "address",
          "name": "",
          "type": "address"
        },
        {
          "internalType": "string",
          "name": "",
          "type": "string"
        },
        {
          "internalType": "uint256",
          "name": "",
          "type": "uint256"
        },
        {
          "internalType": "bool",
          "name": "",
          "type": "bool"
        }
      ],
      "stateMutability": "view",
      "type": "function"
    },
    {
      "inputs": [],
      "name": "getVoterLength",
      "outputs": [
        {
          "internalType": "uint256",
          "name": "",
          "type": "uint256"
        }
      ],
      "stateMutability": "view",
      "type": "function"
    },
    {
      "inputs": [],
      "name": "getVoterList",
      "outputs": [
        {
          "internalType": "address[]",
          "name": "",
          "type": "address[]"
        }
      ],
      "stateMutability": "view",
      "type": "function"
    },
    {
      "inputs": [
        {
          "internalType": "address",
          "name": "_address",
          "type": "address"
        },
        {
          "internalType": "string",
          "name": "_age",
          "type": "string"
        },
        {
          "internalType": "string",
          "name": "_name",
          "type": "string"
        },
        {
          "internalType": "string",
          "name": "_image",
          "type": "string"
        },
        {
          "internalType": "string",
          "name": "_ipfs",
          "type": "string"
        }
      ],
      "name": "setCandidate",
      "outputs": [],
      "stateMutability": "nonpayable",
      "type": "function"
    },
    {
      "inputs": [
        {
          "internalType": "address",
          "name": "_candidateAddress",
          "type": "address"
        },
        {
          "internalType": "uint256",
          "name": "_candidateVoteId",
          "type": "uint256"
        }
      ],
      "name": "vote",
      "outputs": [],
      "stateMutability": "nonpayable",
      "type": "function"
    },
    {
      "inputs": [
        {
          "internalType": "uint256",
          "name": "",
          "type": "uint256"
        }
      ],
      "name": "votedVoters",
      "outputs": [
        {
          "internalType": "address",
          "name": "",
          "type": "address"
        }
      ],
      "stateMutability": "view",
      "type": "function"
    },
    {
      "inputs": [
        {
          "internalType": "uint256",
          "name": "",
          "type": "uint256"
        }
      ],
      "name": "voterAddress",
      "outputs": [
        {
          "internalType": "address",
          "name": "",
          "type": "address"
        }
      ],
      "stateMutability": "view",
      "type": "function"
    },
    {
      "inputs": [],
      "name": "voterId",
      "outputs": [
        {
          "internalType": "uint256",
          "name": "_value",
          "type": "uint256"
        }
      ],
      "stateMutability": "view",
      "type": "function"
    },
    {
      "inputs": [
        {
          "internalType": "address",
          "name": "_address",
          "type": "address"
        },
        {
          "internalType": "string",
          "name": "_name",
          "type": "string"
        },
        {
          "internalType": "string",
          "name": "_image",
          "type": "string"
        },
        {
          "internalType": "string",
          "name": "_ipfs",
          "type": "string"
        }
      ],
      "name": "voterRight",
      "outputs": [],
      "stateMutability": "nonpayable",
      "type": "function"
    },
    {
      "inputs": [
        {
          "internalType": "address",
          "name": "",
          "type": "address"
        }
      ],
      "name": "voters",
      "outputs": [
        {
          "internalType": "uint256",
          "name": "voter_voterId",
          "type": "uint256"
        },
        {
          "internalType": "string",
          "name": "voter_name",
          "type": "string"
        },
        {
          "internalType": "string",
          "name": "voter_image",
          "type": "string"
        },
        {
          "internalType": "address",
          "name": "voter_address",
          "type": "address"
        },
        {
          "internalType": "uint256",
          "name": "voter_allowed",
          "type": "uint256"
        },
        {
          "internalType": "bool",
          "name": "voter_voted",
          "type": "bool"
        },
        {
          "internalType": "uint256",
          "name": "voter_vote",
          "type": "uint256"
        },
        {
          "internalType": "string",
          "name": "voter_ipfs",
          "type": "string"
        }
      ],
      "stateMutability": "view",
      "type": "function"
    },
    {
      "inputs": [],
      "name": "votingOrganizer",
      "outputs": [
        {
          "internalType": "address",
          "name": "",
          "type": "address"
        }
      ],
      "stateMutability": "view",
      "type": "function"
    }
  ],
  "bytecode": "0x608060405234801561001057600080fd5b5033600260006101000a81548173ffffffffffffffffffffffffffffffffffffffff021916908373ffffffffffffffffffffffffffffffffffffffff1602179055506126e3806100616000396000f3fe608060405234801561001057600080fd5b50600436106101165760003560e01c80638ab66a90116100a2578063a3ec138d11610071578063a3ec138d14610303578063b28d92ae1461033a578063b63c82ca14610358578063c91ec7121461038e578063f7522a83146103aa57610116565b80638ab66a901461025b5780638e945685146102915780638fb4cd80146102af5780639f91e6bf146102e557610116565b80635cc48aa7116100e95780635cc48aa7146101a35780635d55f2de146101c15780635f74bbde146101f157806370218b851461020d5780637831ffb31461022b57610116565b80630361419e1461011b57806305ad45a4146101375780633a88251a1461015557806358f17f8314610185575b600080fd5b61013560048036038101906101309190611c87565b6103c8565b005b61013f61068b565b60405161014c9190611d5b565b60405180910390f35b61016f600480360381019061016a9190611da2565b610698565b60405161017c9190611dde565b60405180910390f35b61018d6106d7565b60405161019a9190611d5b565b60405180910390f35b6101ab6106e3565b6040516101b89190611dde565b60405180910390f35b6101db60048036038101906101d69190611da2565b610709565b6040516101e89190611dde565b60405180910390f35b61020b60048036038101906102069190611df9565b610748565b005b610215610910565b6040516102229190611ef7565b60405180910390f35b61024560048036038101906102409190611da2565b61099e565b6040516102529190611dde565b60405180910390f35b61027560048036038101906102709190611f19565b6109dd565b6040516102889796959493929190611fce565b60405180910390f35b610299610c5f565b6040516102a69190611ef7565b60405180910390f35b6102c960048036038101906102c49190611f19565b610ced565b6040516102dc9796959493929190612074565b60405180910390f35b6102ed6110b5565b6040516102fa9190611d5b565b60405180910390f35b61031d60048036038101906103189190611f19565b6110c1565b6040516103319897969594939291906120f8565b60405180910390f35b6103426112ce565b60405161034f9190611ef7565b60405180910390f35b610372600480360381019061036d9190611f19565b61135c565b604051610385979695949392919061218b565b60405180910390f35b6103a860048036038101906103a39190612216565b6117a3565b005b6103b26119fb565b6040516103bf9190611d5b565b60405180910390f35b3373ffffffffffffffffffffffffffffffffffffffff16600260009054906101000a900473ffffffffffffffffffffffffffffffffffffffff1673ffffffffffffffffffffffffffffffffffffffff1614610458576040517f08c379a000000000000000000000000000000000000000000000000000000000815260040161044f9061234d565b60405180910390fd5b6104626000611a08565b600061046e6000611a1e565b90506000600760008773ffffffffffffffffffffffffffffffffffffffff1673ffffffffffffffffffffffffffffffffffffffff168152602001908152602001600020905060008160040154146104fa576040517f08c379a00000000000000000000000000000000000000000000000000000000081526004016104f1906123b9565b60405180910390fd5b600181600401819055508481600101908051906020019061051c929190611a2c565b5083816002019080519060200190610535929190611a2c565b50858160030160006101000a81548173ffffffffffffffffffffffffffffffffffffffff021916908373ffffffffffffffffffffffffffffffffffffffff1602179055508181600001819055506103e8816006018190555060008160050160006101000a81548160ff021916908315150217905550828160070190805190602001906105c2929190611a2c565b506005869080600181540180825580915050600190039060005260206000200160009091909190916101000a81548173ffffffffffffffffffffffffffffffffffffffff021916908373ffffffffffffffffffffffffffffffffffffffff160217905550817ff5f39971dd62d9929e3a9feaa6bb77fe7c7da0001babff8a65a7e51ad0201c1986868985600401548660050160009054906101000a900460ff1687600601548a60405161067b97969594939291906123d9565b60405180910390a2505050505050565b6000600580549050905090565b600381815481106106a857600080fd5b906000526020600020016000915054906101000a900473ffffffffffffffffffffffffffffffffffffffff1681565b60008060000154905081565b600260009054906101000a900473ffffffffffffffffffffffffffffffffffffffff1681565b6005818154811061071957600080fd5b906000526020600020016000915054906101000a900473ffffffffffffffffffffffffffffffffffffffff1681565b6000600760003373ffffffffffffffffffffffffffffffffffffffff1673ffffffffffffffffffffffffffffffffffffffff16815260200190815260200160002090508060050160009054906101000a900460ff16156107dd576040517f08c379a00000000000000000000000000000000000000000000000000000000081526004016107d4906124a9565b60405180910390fd5b600081600401541415610825576040517f08c379a000000000000000000000000000000000000000000000000000000000815260040161081c90612515565b60405180910390fd5b60018160050160006101000a81548160ff0219169083151502179055508181600601819055506006339080600181540180825580915050600190039060005260206000200160009091909190916101000a81548173ffffffffffffffffffffffffffffffffffffffff021916908373ffffffffffffffffffffffffffffffffffffffff1602179055508060040154600460008573ffffffffffffffffffffffffffffffffffffffff1673ffffffffffffffffffffffffffffffffffffffff16815260200190815260200160002060040160008282546109049190612564565b92505081905550505050565b6060600380548060200260200160405190810160405280929190818152602001828054801561099457602002820191906000526020600020905b8160009054906101000a900473ffffffffffffffffffffffffffffffffffffffff1673ffffffffffffffffffffffffffffffffffffffff168152602001906001019080831161094a575b5050505050905090565b600681815481106109ae57600080fd5b906000526020600020016000915054906101000a900473ffffffffffffffffffffffffffffffffffffffff1681565b6004602052806000526040600020600091509050806000015490806001018054610a06906125e9565b80601f0160208091040260200160405190810160405280929190818152602001828054610a32906125e9565b8015610a7f5780601f10610a5457610100808354040283529160200191610a7f565b820191906000526020600020905b815481529060010190602001808311610a6257829003601f168201915b505050505090806002018054610a94906125e9565b80601f0160208091040260200160405190810160405280929190818152602001828054610ac0906125e9565b8015610b0d5780601f10610ae257610100808354040283529160200191610b0d565b820191906000526020600020905b815481529060010190602001808311610af057829003601f168201915b505050505090806003018054610b22906125e9565b80601f0160208091040260200160405190810160405280929190818152602001828054610b4e906125e9565b8015610b9b5780601f10610b7057610100808354040283529160200191610b9b565b820191906000526020600020905b815481529060010190602001808311610b7e57829003601f168201915b5050505050908060040154908060050160009054906101000a900473ffffffffffffffffffffffffffffffffffffffff1690806006018054610bdc906125e9565b80601f0160208091040260200160405190810160405280929190818152602001828054610c08906125e9565b8015610c555780601f10610c2a57610100808354040283529160200191610c55565b820191906000526020600020905b815481529060010190602001808311610c3857829003601f168201915b5050505050905087565b60606006805480602002602001604051908101604052809291908181526020018280548015610ce357602002820191906000526020600020905b8160009054906101000a900473ffffffffffffffffffffffffffffffffffffffff1673ffffffffffffffffffffffffffffffffffffffff1681526020019060010190808311610c99575b5050505050905090565b600060608060006060600080600760008973ffffffffffffffffffffffffffffffffffffffff1673ffffffffffffffffffffffffffffffffffffffff16815260200190815260200160002060000154600760008a73ffffffffffffffffffffffffffffffffffffffff1673ffffffffffffffffffffffffffffffffffffffff168152602001908152602001600020600101600760008b73ffffffffffffffffffffffffffffffffffffffff1673ffffffffffffffffffffffffffffffffffffffff168152602001908152602001600020600201600760008c73ffffffffffffffffffffffffffffffffffffffff1673ffffffffffffffffffffffffffffffffffffffff16815260200190815260200160002060030160009054906101000a900473ffffffffffffffffffffffffffffffffffffffff16600760008d73ffffffffffffffffffffffffffffffffffffffff1673ffffffffffffffffffffffffffffffffffffffff168152602001908152602001600020600701600760008e73ffffffffffffffffffffffffffffffffffffffff1673ffffffffffffffffffffffffffffffffffffffff16815260200190815260200160002060040154600760008f73ffffffffffffffffffffffffffffffffffffffff1673ffffffffffffffffffffffffffffffffffffffff16815260200190815260200160002060050160009054906101000a900460ff16858054610f04906125e9565b80601f0160208091040260200160405190810160405280929190818152602001828054610f30906125e9565b8015610f7d5780601f10610f5257610100808354040283529160200191610f7d565b820191906000526020600020905b815481529060010190602001808311610f6057829003601f168201915b50505050509550848054610f90906125e9565b80601f0160208091040260200160405190810160405280929190818152602001828054610fbc906125e9565b80156110095780601f10610fde57610100808354040283529160200191611009565b820191906000526020600020905b815481529060010190602001808311610fec57829003601f168201915b5050505050945082805461101c906125e9565b80601f0160208091040260200160405190810160405280929190818152602001828054611048906125e9565b80156110955780601f1061106a57610100808354040283529160200191611095565b820191906000526020600020905b81548152906001019060200180831161107857829003601f168201915b505050505092509650965096509650965096509650919395979092949650565b60018060000154905081565b60076020528060005260406000206000915090508060000154908060010180546110ea906125e9565b80601f0160208091040260200160405190810160405280929190818152602001828054611116906125e9565b80156111635780601f1061113857610100808354040283529160200191611163565b820191906000526020600020905b81548152906001019060200180831161114657829003601f168201915b505050505090806002018054611178906125e9565b80601f01602080910402602001604051908101604052809291908181526020018280546111a4906125e9565b80156111f15780601f106111c6576101008083540402835291602001916111f1565b820191906000526020600020905b8154815290600101906020018083116111d457829003601f168201915b5050505050908060030160009054906101000a900473ffffffffffffffffffffffffffffffffffffffff16908060040154908060050160009054906101000a900460ff169080600601549080600701805461124b906125e9565b80601f0160208091040260200160405190810160405280929190818152602001828054611277906125e9565b80156112c45780601f10611299576101008083540402835291602001916112c4565b820191906000526020600020905b8154815290600101906020018083116112a757829003601f168201915b5050505050905088565b6060600580548060200260200160405190810160405280929190818152602001828054801561135257602002820191906000526020600020905b8160009054906101000a900473ffffffffffffffffffffffffffffffffffffffff1673ffffffffffffffffffffffffffffffffffffffff1681526020019060010190808311611308575b5050505050905090565b60608060006060600060606000600460008973ffffffffffffffffffffffffffffffffffffffff1673ffffffffffffffffffffffffffffffffffffffff168152602001908152602001600020600101600460008a73ffffffffffffffffffffffffffffffffffffffff1673ffffffffffffffffffffffffffffffffffffffff168152602001908152602001600020600201600460008b73ffffffffffffffffffffffffffffffffffffffff1673ffffffffffffffffffffffffffffffffffffffff16815260200190815260200160002060000154600460008c73ffffffffffffffffffffffffffffffffffffffff1673ffffffffffffffffffffffffffffffffffffffff168152602001908152602001600020600301600460008d73ffffffffffffffffffffffffffffffffffffffff1673ffffffffffffffffffffffffffffffffffffffff16815260200190815260200160002060040154600460008e73ffffffffffffffffffffffffffffffffffffffff1673ffffffffffffffffffffffffffffffffffffffff168152602001908152602001600020600601600460008f73ffffffffffffffffffffffffffffffffffffffff1673ffffffffffffffffffffffffffffffffffffffff16815260200190815260200160002060050160009054906101000a900473ffffffffffffffffffffffffffffffffffffffff16868054611566906125e9565b80601f0160208091040260200160405190810160405280929190818152602001828054611592906125e9565b80156115df5780601f106115b4576101008083540402835291602001916115df565b820191906000526020600020905b8154815290600101906020018083116115c257829003601f168201915b505050505096508580546115f2906125e9565b80601f016020809104026020016040519081016040528092919081815260200182805461161e906125e9565b801561166b5780601f106116405761010080835404028352916020019161166b565b820191906000526020600020905b81548152906001019060200180831161164e57829003601f168201915b5050505050955083805461167e906125e9565b80601f01602080910402602001604051908101604052809291908181526020018280546116aa906125e9565b80156116f75780601f106116cc576101008083540402835291602001916116f7565b820191906000526020600020905b8154815290600101906020018083116116da57829003601f168201915b5050505050935081805461170a906125e9565b80601f0160208091040260200160405190810160405280929190818152602001828054611736906125e9565b80156117835780601f1061175857610100808354040283529160200191611783565b820191906000526020600020905b81548152906001019060200180831161176657829003601f168201915b505050505091509650965096509650965096509650919395979092949650565b3373ffffffffffffffffffffffffffffffffffffffff16600260009054906101000a900473ffffffffffffffffffffffffffffffffffffffff1673ffffffffffffffffffffffffffffffffffffffff1614611833576040517f08c379a000000000000000000000000000000000000000000000000000000000815260040161182a9061268d565b60405180910390fd5b61183d6001611a08565b60006118496001611a1e565b90506000600460008873ffffffffffffffffffffffffffffffffffffffff1673ffffffffffffffffffffffffffffffffffffffff1681526020019081526020016000209050858160010190805190602001906118a6929190611a2c565b50848160020190805190602001906118bf929190611a2c565b50818160000181905550838160030190805190602001906118e1929190611a2c565b5060008160040181905550868160050160006101000a81548173ffffffffffffffffffffffffffffffffffffffff021916908373ffffffffffffffffffffffffffffffffffffffff16021790555082816006019080519060200190611947929190611a2c565b506003879080600181540180825580915050600190039060005260206000200160009091909190916101000a81548173ffffffffffffffffffffffffffffffffffffffff021916908373ffffffffffffffffffffffffffffffffffffffff1602179055507fd297f12b256bb8485a6013fb5e302017018123e99a0ebb20756c09e1707b4b908287878785600401548c896040516119ea9796959493929190611fce565b60405180910390a150505050505050565b6000600380549050905090565b6001816000016000828254019250508190555050565b600081600001549050919050565b828054611a38906125e9565b90600052602060002090601f016020900481019282611a5a5760008555611aa1565b82601f10611a7357805160ff1916838001178555611aa1565b82800160010185558215611aa1579182015b82811115611aa0578251825591602001919060010190611a85565b5b509050611aae9190611ab2565b5090565b5b80821115611acb576000816000905550600101611ab3565b5090565b6000604051905090565b600080fd5b600080fd5b600073ffffffffffffffffffffffffffffffffffffffff82169050919050565b6000611b0e82611ae3565b9050919050565b611b1e81611b03565b8114611b2957600080fd5b50565b600081359050611b3b81611b15565b92915050565b600080fd5b600080fd5b6000601f19601f8301169050919050565b7f4e487b7100000000000000000000000000000000000000000000000000000000600052604160045260246000fd5b611b9482611b4b565b810181811067ffffffffffffffff82111715611bb357611bb2611b5c565b5b80604052505050565b6000611bc6611acf565b9050611bd28282611b8b565b919050565b600067ffffffffffffffff821115611bf257611bf1611b5c565b5b611bfb82611b4b565b9050602081019050919050565b82818337600083830152505050565b6000611c2a611c2584611bd7565b611bbc565b905082815260208101848484011115611c4657611c45611b46565b5b611c51848285611c08565b509392505050565b600082601f830112611c6e57611c6d611b41565b5b8135611c7e848260208601611c17565b91505092915050565b60008060008060808587031215611ca157611ca0611ad9565b5b6000611caf87828801611b2c565b945050602085013567ffffffffffffffff811115611cd057611ccf611ade565b5b611cdc87828801611c59565b935050604085013567ffffffffffffffff811115611cfd57611cfc611ade565b5b611d0987828801611c59565b925050606085013567ffffffffffffffff811115611d2a57611d29611ade565b5b611d3687828801611c59565b91505092959194509250565b6000819050919050565b611d5581611d42565b82525050565b6000602082019050611d706000830184611d4c565b92915050565b611d7f81611d42565b8114611d8a57600080fd5b50565b600081359050611d9c81611d76565b92915050565b600060208284031215611db857611db7611ad9565b5b6000611dc684828501611d8d565b91505092915050565b611dd881611b03565b82525050565b6000602082019050611df36000830184611dcf565b92915050565b60008060408385031215611e1057611e0f611ad9565b5b6000611e1e85828601611b2c565b9250506020611e2f85828601611d8d565b9150509250929050565b600081519050919050565b600082825260208201905092915050565b6000819050602082019050919050565b611e6e81611b03565b82525050565b6000611e808383611e65565b60208301905092915050565b6000602082019050919050565b6000611ea482611e39565b611eae8185611e44565b9350611eb983611e55565b8060005b83811015611eea578151611ed18882611e74565b9750611edc83611e8c565b925050600181019050611ebd565b5085935050505092915050565b60006020820190508181036000830152611f118184611e99565b905092915050565b600060208284031215611f2f57611f2e611ad9565b5b6000611f3d84828501611b2c565b91505092915050565b600081519050919050565b600082825260208201905092915050565b60005b83811015611f80578082015181840152602081019050611f65565b83811115611f8f576000848401525b50505050565b6000611fa082611f46565b611faa8185611f51565b9350611fba818560208601611f62565b611fc381611b4b565b840191505092915050565b600060e082019050611fe3600083018a611d4c565b8181036020830152611ff58189611f95565b905081810360408301526120098188611f95565b9050818103606083015261201d8187611f95565b905061202c6080830186611d4c565b61203960a0830185611dcf565b81810360c083015261204b8184611f95565b905098975050505050505050565b60008115159050919050565b61206e81612059565b82525050565b600060e082019050612089600083018a611d4c565b818103602083015261209b8189611f95565b905081810360408301526120af8188611f95565b90506120be6060830187611dcf565b81810360808301526120d08186611f95565b90506120df60a0830185611d4c565b6120ec60c0830184612065565b98975050505050505050565b60006101008201905061210e600083018b611d4c565b8181036020830152612120818a611f95565b905081810360408301526121348189611f95565b90506121436060830188611dcf565b6121506080830187611d4c565b61215d60a0830186612065565b61216a60c0830185611d4c565b81810360e083015261217c8184611f95565b90509998505050505050505050565b600060e08201905081810360008301526121a5818a611f95565b905081810360208301526121b98189611f95565b90506121c86040830188611d4c565b81810360608301526121da8187611f95565b90506121e96080830186611d4c565b81810360a08301526121fb8185611f95565b905061220a60c0830184611dcf565b98975050505050505050565b600080600080600060a0868803121561223257612231611ad9565b5b600061224088828901611b2c565b955050602086013567ffffffffffffffff81111561226157612260611ade565b5b61226d88828901611c59565b945050604086013567ffffffffffffffff81111561228e5761228d611ade565b5b61229a88828901611c59565b935050606086013567ffffffffffffffff8111156122bb576122ba611ade565b5b6122c788828901611c59565b925050608086013567ffffffffffffffff8111156122e8576122e7611ade565b5b6122f488828901611c59565b9150509295509295909350565b7f6f6e6c79206f7267616e697a65722063616e2063726561746520766f74657200600082015250565b6000612337601f83611f51565b915061234282612301565b602082019050919050565b600060208201905081810360008301526123668161232a565b9050919050565b7f766f74657220616c726561647920657869737473000000000000000000000000600082015250565b60006123a3601483611f51565b91506123ae8261236d565b602082019050919050565b600060208201905081810360008301526123d281612396565b9050919050565b600060e08201905081810360008301526123f3818a611f95565b905081810360208301526124078189611f95565b90506124166040830188611dcf565b6124236060830187611d4c565b6124306080830186612065565b61243d60a0830185611d4c565b81810360c083015261244f8184611f95565b905098975050505050505050565b7f796f75206861766520616c726561647920766f74656400000000000000000000600082015250565b6000612493601683611f51565b915061249e8261245d565b602082019050919050565b600060208201905081810360008301526124c281612486565b9050919050565b7f796f752068617665206e6f20726967687420746f20766f746500000000000000600082015250565b60006124ff601983611f51565b915061250a826124c9565b602082019050919050565b6000602082019050818103600083015261252e816124f2565b9050919050565b7f4e487b7100000000000000000000000000000000000000000000000000000000600052601160045260246000fd5b600061256f82611d42565b915061257a83611d42565b9250827fffffffffffffffffffffffffffffffffffffffffffffffffffffffffffffffff038211156125af576125ae612535565b5b828201905092915050565b7f4e487b7100000000000000000000000000000000000000000000000000000000600052602260045260246000fd5b6000600282049050600182168061260157607f821691505b60208210811415612615576126146125ba565b5b50919050565b7f6f6e6c79206f7267616e697a65722063616e206372656174652074686520636160008201527f6e64696461746500000000000000000000000000000000000000000000000000602082015250565b6000612677602783611f51565b91506126828261261b565b604082019050919050565b600060208201905081810360008301526126a68161266a565b905091905056fea2646970667358221220e47b808bd8875f2b1b753b5ba3b539296a9de3ec8c7bcfc5ca7240c18de9751e64736f6c63430008090033",
  "linkReferences": {},
  "deployedLinkReferences": {}
}